{
  "contractName": "Election",
  "abi": [
    {
      "inputs": [],
      "payable": false,
      "stateMutability": "nonpayable",
      "type": "constructor"
    },
    {
      "anonymous": false,
      "inputs": [],
      "name": "addCandidateEvent",
      "type": "event"
    },
    {
      "anonymous": false,
      "inputs": [],
      "name": "displayResults",
      "type": "event"
    },
    {
      "anonymous": false,
      "inputs": [],
      "name": "timerNotEnd",
      "type": "event"
    },
    {
      "anonymous": false,
      "inputs": [
        {
          "indexed": true,
          "internalType": "uint256",
          "name": "_candidateId",
          "type": "uint256"
        }
      ],
      "name": "votedEvent",
      "type": "event"
    },
    {
      "constant": true,
      "inputs": [
        {
          "internalType": "uint256",
          "name": "",
          "type": "uint256"
        }
      ],
      "name": "candidates",
      "outputs": [
        {
          "internalType": "uint256",
          "name": "id",
          "type": "uint256"
        },
        {
          "internalType": "string",
          "name": "name",
          "type": "string"
        },
        {
          "internalType": "uint256",
          "name": "voteCount",
          "type": "uint256"
        }
      ],
      "payable": false,
      "stateMutability": "view",
      "type": "function"
    },
    {
      "constant": true,
      "inputs": [],
      "name": "candidatesQuantity",
      "outputs": [
        {
          "internalType": "uint256",
          "name": "",
          "type": "uint256"
        }
      ],
      "payable": false,
      "stateMutability": "view",
      "type": "function"
    },
    {
      "constant": true,
      "inputs": [],
      "name": "displayElectionResults",
      "outputs": [
        {
          "internalType": "bool",
          "name": "",
          "type": "bool"
        }
      ],
      "payable": false,
      "stateMutability": "view",
      "type": "function"
    },
    {
      "constant": true,
      "inputs": [],
      "name": "elecetionEndTimeCheck",
      "outputs": [
        {
          "internalType": "bool",
          "name": "",
          "type": "bool"
        }
      ],
      "payable": false,
      "stateMutability": "view",
      "type": "function"
    },
    {
      "constant": true,
      "inputs": [],
      "name": "electionEnd",
      "outputs": [
        {
          "internalType": "uint256",
          "name": "",
          "type": "uint256"
        }
      ],
      "payable": false,
      "stateMutability": "view",
      "type": "function"
    },
    {
      "constant": true,
      "inputs": [
        {
          "internalType": "address",
          "name": "",
          "type": "address"
        }
      ],
      "name": "voters",
      "outputs": [
        {
          "internalType": "bool",
          "name": "",
          "type": "bool"
        }
      ],
      "payable": false,
      "stateMutability": "view",
      "type": "function"
    },
    {
      "constant": false,
      "inputs": [
        {
          "internalType": "string",
          "name": "_name",
          "type": "string"
        }
      ],
      "name": "addCandidate",
      "outputs": [],
      "payable": false,
      "stateMutability": "nonpayable",
      "type": "function"
    },
    {
      "constant": false,
      "inputs": [
        {
          "internalType": "uint256",
          "name": "electionEndTimer",
          "type": "uint256"
        }
      ],
      "name": "setElectionEndTimer",
      "outputs": [],
      "payable": false,
      "stateMutability": "nonpayable",
      "type": "function"
    },
    {
      "constant": false,
      "inputs": [],
      "name": "checkElectionResults",
      "outputs": [],
      "payable": false,
      "stateMutability": "nonpayable",
      "type": "function"
    },
    {
      "constant": false,
      "inputs": [
        {
          "internalType": "uint256",
          "name": "_candidateId",
          "type": "uint256"
        }
      ],
      "name": "vote",
      "outputs": [],
      "payable": false,
      "stateMutability": "nonpayable",
      "type": "function"
    }
  ],
  "bytecode": "0x60806040526000600460016101000a81548160ff02191690831515021790555034801561002b57600080fd5b506107df8061003b6000396000f3fe608060405234801561001057600080fd5b506004361061009e5760003560e01c80635be4d497116100665780635be4d4971461028d578063a3ec138d14610297578063a438ca68146102f3578063ce7ea16114610315578063dc37f41a146103335761009e565b80630121b93f146100a35780633477ee2e146100d15780633aceba9e14610186578063462e91ec146101b457806352b37f201461026f575b600080fd5b6100cf600480360360208110156100b957600080fd5b8101908080359060200190929190505050610355565b005b6100fd600480360360208110156100e757600080fd5b8101908080359060200190929190505050610481565b6040518084815260200180602001838152602001828103825284818151815260200191508051906020019080838360005b8381101561014957808201518184015260208101905061012e565b50505050905090810190601f1680156101765780820380516001836020036101000a031916815260200191505b5094505050505060405180910390f35b6101b26004803603602081101561019c57600080fd5b8101908080359060200190929190505050610543565b005b61026d600480360360208110156101ca57600080fd5b81019080803590602001906401000000008111156101e757600080fd5b8201836020820111156101f957600080fd5b8035906020019184600183028401116401000000008311171561021b57600080fd5b91908080601f016020809104026020016040519081016040528093929190818152602001838380828437600081840152601f19601f82011690508083019250505050505050919291929050505061056d565b005b61027761062e565b6040518082815260200191505060405180910390f35b610295610634565b005b6102d9600480360360208110156102ad57600080fd5b81019080803573ffffffffffffffffffffffffffffffffffffffff1690602001909291905050506106b9565b604051808215151515815260200191505060405180910390f35b6102fb6106d9565b604051808215151515815260200191505060405180910390f35b61031d6106ec565b6040518082815260200191505060405180910390f35b61033b6106f2565b604051808215151515815260200191505060405180910390f35b600354421061036357600080fd5b6000803373ffffffffffffffffffffffffffffffffffffffff1673ffffffffffffffffffffffffffffffffffffffff16815260200190815260200160002060009054906101000a900460ff16156103b957600080fd5b6000811180156103cb57506002548111155b6103d457600080fd5b60016000803373ffffffffffffffffffffffffffffffffffffffff1673ffffffffffffffffffffffffffffffffffffffff16815260200190815260200160002060006101000a81548160ff0219169083151502179055506001600082815260200190815260200160002060020160008154809291906001019190505550807ffff3c900d938d21d0990d786e819f29b8d05c1ef587b462b939609625b684b1660405160405180910390a250565b6001602052806000526040600020600091509050806000015490806001018054600181600116156101000203166002900480601f0160208091040260200160405190810160405280929190818152602001828054600181600116156101000203166002900480156105335780601f1061050857610100808354040283529160200191610533565b820191906000526020600020905b81548152906001019060200180831161051657829003601f168201915b5050505050908060020154905083565b603c810242016003819055506001600460006101000a81548160ff02191690831515021790555050565b600460009054906101000a900460ff1661058657600080fd5b6002600081548092919060010191905055506040518060600160405280600254815260200182815260200160008152506001600060025481526020019081526020016000206000820151816000015560208201518160010190805190602001906105f1929190610705565b50604082015181600201559050507f678dcfee9f6888e6f0031eb28c607972bac075eefaea165cdaada81a74f1782560405160405180910390a150565b60025481565b60035442111561068a576001600460016101000a81548160ff0219169083151502179055507f0aec8360fe2d20b0e5c40b24cbec158bd3deea8385b486eee9164bc9d3ac3c9c60405160405180910390a16106b7565b7ff25b24a477ec1b8d2a6c05910a6b5c88df93e1d9e2fab01baa60a670240861ed60405160405180910390a15b565b60006020528060005260406000206000915054906101000a900460ff1681565b600460019054906101000a900460ff1681565b60035481565b600460009054906101000a900460ff1681565b828054600181600116156101000203166002900490600052602060002090601f016020900481019282601f1061074657805160ff1916838001178555610774565b82800160010185558215610774579182015b82811115610773578251825591602001919060010190610758565b5b5090506107819190610785565b5090565b6107a791905b808211156107a357600081600090555060010161078b565b5090565b9056fea265627a7a72315820189c7a0ea8e70c0516fdfbe21b6461d86aa209857e3ccf7a50298edbf878401e64736f6c63430005100032",
  "source": "// SPDX-License-Identifier: MIT\r\npragma solidity ^0.5.16;\r\n\r\ncontract Election{\r\n    // Candidate model\r\n    struct Candidate {\r\n        uint id;\r\n        string name;\r\n        uint voteCount;\r\n    }\r\n\r\n    mapping(address => bool) public voters; // Store voted accounts\r\n\r\n    mapping(uint => Candidate) public candidates; // Fetch a Candidate\r\n\r\n    uint public candidatesQuantity; // Store Candidates Quantity\r\n    uint public electionEnd;\r\n    bool public elecetionEndTimeCheck;\r\n    bool public displayElectionResults = false;\r\n\r\n    event votedEvent (\r\n        uint indexed _candidateId\r\n    );\r\n\r\n    event addCandidateEvent (\r\n    );\r\n\r\n    event displayResults ();\r\n\r\n    event timerNotEnd ();\r\n\r\n    // Constructor\r\n     constructor() public {\r\n        // electionEnd = now + (1 * 1 minutes);\r\n    }\r\n\r\n    function addCandidate (string memory _name) public {\r\n        require(elecetionEndTimeCheck);\r\n        candidatesQuantity ++;\r\n        candidates[candidatesQuantity] = Candidate(candidatesQuantity, _name, 0); // Adds a candidate to the cadidates list with candidatesQuantity as the id, name, initial voteCount\r\n        emit addCandidateEvent();\r\n    }\r\n\r\n    function setElectionEndTimer (uint electionEndTimer) public {\r\n        electionEnd = now + (electionEndTimer * 1 minutes);\r\n        elecetionEndTimeCheck = true;\r\n    }\r\n\r\n    function checkElectionResults() public{\r\n        if (now > electionEnd){\r\n            displayElectionResults = true;\r\n            emit displayResults(); // Trigger display results event\r\n        }else{\r\n            emit timerNotEnd(); // Trigger still time for election event\r\n        }\r\n        }\r\n\r\n    function vote (uint _candidateId) public {\r\n        require(now < electionEnd);\r\n        require(!voters[msg.sender]); // Check account haven't voted already\r\n        require(_candidateId > 0 && _candidateId <= candidatesQuantity); // Check for valid candidate\r\n        voters[msg.sender] = true; // Record account that has voted in the voters list\r\n        candidates[_candidateId].voteCount++; // Update cadidate votes quantity\r\n        emit votedEvent(_candidateId); // Trigger voted event\r\n    }\r\n\r\n}",
  "sourcePath": "C:\\Users\\lior1\\Desktop\\study\\שנה ג\\סמסטר ב\\Blockchain Course\\Blockchain_Elections_Final_Project\\contracts\\Election.sol",
  "compiler": {
    "name": "solc",
    "version": "0.5.16+commit.9c3226ce.Emscripten.clang"
  },
  "schemaVersion": "3.4.7",
  "updatedAt": "2022-07-02T13:22:26.469Z",
  "networkType": "ethereum",
  "devdoc": {
    "methods": {}
  },
  "userdoc": {
    "methods": {}
  }
}