{
  "contractName": "Election",
  "abi": [
    {
      "inputs": [
        {
          "internalType": "contract ERC20Basic",
          "name": "ERC20BasicAddress",
          "type": "address"
        },
        {
          "internalType": "contract ERC721Basic",
          "name": "ERC721TokenAddress",
          "type": "address"
        }
      ],
      "stateMutability": "nonpayable",
      "type": "constructor"
    },
    {
      "anonymous": false,
      "inputs": [],
      "name": "addCandidateEvent",
      "type": "event"
    },
    {
      "anonymous": false,
      "inputs": [],
      "name": "displayResults",
      "type": "event"
    },
    {
      "anonymous": false,
      "inputs": [],
      "name": "timerNotEnd",
      "type": "event"
    },
    {
      "anonymous": false,
      "inputs": [
        {
          "indexed": true,
          "internalType": "uint256",
          "name": "_candidateId",
          "type": "uint256"
        }
      ],
      "name": "votedEvent",
      "type": "event"
    },
    {
      "inputs": [
        {
          "internalType": "uint256",
          "name": "",
          "type": "uint256"
        }
      ],
      "name": "candidates",
      "outputs": [
        {
          "internalType": "uint256",
          "name": "id",
          "type": "uint256"
        },
        {
          "internalType": "string",
          "name": "name",
          "type": "string"
        },
        {
          "internalType": "uint256",
          "name": "voteCount",
          "type": "uint256"
        }
      ],
      "stateMutability": "view",
      "type": "function",
      "constant": true
    },
    {
      "inputs": [],
      "name": "candidatesQuantity",
      "outputs": [
        {
          "internalType": "uint256",
          "name": "",
          "type": "uint256"
        }
      ],
      "stateMutability": "view",
      "type": "function",
      "constant": true
    },
    {
      "inputs": [],
      "name": "displayElectionResults",
      "outputs": [
        {
          "internalType": "bool",
          "name": "",
          "type": "bool"
        }
      ],
      "stateMutability": "view",
      "type": "function",
      "constant": true
    },
    {
      "inputs": [],
      "name": "elecetionEndTimeCheck",
      "outputs": [
        {
          "internalType": "bool",
          "name": "",
          "type": "bool"
        }
      ],
      "stateMutability": "view",
      "type": "function",
      "constant": true
    },
    {
      "inputs": [],
      "name": "electionEnd",
      "outputs": [
        {
          "internalType": "uint256",
          "name": "",
          "type": "uint256"
        }
      ],
      "stateMutability": "view",
      "type": "function",
      "constant": true
    },
    {
      "inputs": [
        {
          "internalType": "address",
          "name": "",
          "type": "address"
        }
      ],
      "name": "voters",
      "outputs": [
        {
          "internalType": "bool",
          "name": "",
          "type": "bool"
        }
      ],
      "stateMutability": "view",
      "type": "function",
      "constant": true
    },
    {
      "inputs": [
        {
          "internalType": "string",
          "name": "_name",
          "type": "string"
        }
      ],
      "name": "addCandidate",
      "outputs": [],
      "stateMutability": "nonpayable",
      "type": "function"
    },
    {
      "inputs": [
        {
          "internalType": "uint256",
          "name": "electionEndTimer",
          "type": "uint256"
        }
      ],
      "name": "setElectionEndTimer",
      "outputs": [],
      "stateMutability": "nonpayable",
      "type": "function"
    },
    {
      "inputs": [],
      "name": "checkElectionResults",
      "outputs": [],
      "stateMutability": "nonpayable",
      "type": "function"
    },
    {
      "inputs": [
        {
          "internalType": "uint256",
          "name": "_candidateId",
          "type": "uint256"
        }
      ],
      "name": "vote",
      "outputs": [],
      "stateMutability": "nonpayable",
      "type": "function"
    },
    {
      "inputs": [],
      "name": "voteRegistration",
      "outputs": [],
      "stateMutability": "nonpayable",
      "type": "function"
    }
  ],
  "bytecode": "0x60806040526000600760016101000a81548160ff0219169083151502179055503480156200002c57600080fd5b50604051620013383803806200133883398181016040528101906200005291906200019e565b816000806101000a81548173ffffffffffffffffffffffffffffffffffffffff021916908373ffffffffffffffffffffffffffffffffffffffff16021790555080600160006101000a81548173ffffffffffffffffffffffffffffffffffffffff021916908373ffffffffffffffffffffffffffffffffffffffff1602179055505050620001e5565b600080fd5b600073ffffffffffffffffffffffffffffffffffffffff82169050919050565b60006200010d82620000e0565b9050919050565b6000620001218262000100565b9050919050565b620001338162000114565b81146200013f57600080fd5b50565b600081519050620001538162000128565b92915050565b6000620001668262000100565b9050919050565b620001788162000159565b81146200018457600080fd5b50565b60008151905062000198816200016d565b92915050565b60008060408385031215620001b857620001b7620000db565b5b6000620001c88582860162000142565b9250506020620001db8582860162000187565b9150509250929050565b61114380620001f56000396000f3fe608060405234801561001057600080fd5b50600436106100a95760003560e01c80635be4d497116100715780635be4d497146101525780637c97a1921461015c578063a3ec138d14610166578063a438ca6814610196578063ce7ea161146101b4578063dc37f41a146101d2576100a9565b80630121b93f146100ae5780633477ee2e146100ca5780633aceba9e146100fc578063462e91ec1461011857806352b37f2014610134575b600080fd5b6100c860048036038101906100c39190610872565b6101f0565b005b6100e460048036038101906100df9190610872565b61046c565b6040516100f393929190610947565b60405180910390f35b61011660048036038101906101119190610872565b61051e565b005b610132600480360381019061012d9190610aba565b61055a565b005b61013c61061a565b6040516101499190610b03565b60405180910390f35b61015a610620565b005b6101646106a5565b005b610180600480360381019061017b9190610b7c565b6107dc565b60405161018d9190610bc4565b60405180910390f35b61019e6107fc565b6040516101ab9190610bc4565b60405180910390f35b6101bc61080f565b6040516101c99190610b03565b60405180910390f35b6101da610815565b6040516101e79190610bc4565b60405180910390f35b60055442106101fe57600080fd5b6000600160009054906101000a900473ffffffffffffffffffffffffffffffffffffffff1673ffffffffffffffffffffffffffffffffffffffff166370a08231336040518263ffffffff1660e01b815260040161025b9190610bee565b602060405180830381865afa158015610278573d6000803e3d6000fd5b505050506040513d601f19601f8201168201806040525081019061029c9190610c1e565b116102a657600080fd5b600260003373ffffffffffffffffffffffffffffffffffffffff1673ffffffffffffffffffffffffffffffffffffffff16815260200190815260200160002060009054906101000a900460ff16156102fd57600080fd5b60008111801561030f57506004548111155b61031857600080fd5b6001600260003373ffffffffffffffffffffffffffffffffffffffff1673ffffffffffffffffffffffffffffffffffffffff16815260200190815260200160002060006101000a81548160ff02191690831515021790555060036000828152602001908152602001600020600201600081548092919061039790610c7a565b919050555060008054906101000a900473ffffffffffffffffffffffffffffffffffffffff1673ffffffffffffffffffffffffffffffffffffffff1663a9059cbb3360016040518363ffffffff1660e01b81526004016103f8929190610d07565b6020604051808303816000875af1158015610417573d6000803e3d6000fd5b505050506040513d601f19601f8201168201806040525081019061043b9190610d5c565b50807ffff3c900d938d21d0990d786e819f29b8d05c1ef587b462b939609625b684b1660405160405180910390a250565b600360205280600052604060002060009150905080600001549080600101805461049590610db8565b80601f01602080910402602001604051908101604052809291908181526020018280546104c190610db8565b801561050e5780601f106104e35761010080835404028352916020019161050e565b820191906000526020600020905b8154815290600101906020018083116104f157829003601f168201915b5050505050908060020154905083565b603c8161052b9190610de9565b426105369190610e43565b6005819055506001600760006101000a81548160ff02191690831515021790555050565b600760009054906101000a900460ff1661057357600080fd5b6004600081548092919061058690610c7a565b91905055506040518060600160405280600454815260200182815260200160008152506003600060045481526020019081526020016000206000820151816000015560208201518160010190816105dd919061103b565b50604082015181600201559050507f678dcfee9f6888e6f0031eb28c607972bac075eefaea165cdaada81a74f1782560405160405180910390a150565b60045481565b600554421115610676576001600760016101000a81548160ff0219169083151502179055507f0aec8360fe2d20b0e5c40b24cbec158bd3deea8385b486eee9164bc9d3ac3c9c60405160405180910390a16106a3565b7ff25b24a477ec1b8d2a6c05910a6b5c88df93e1d9e2fab01baa60a670240861ed60405160405180910390a15b565b6000600160009054906101000a900473ffffffffffffffffffffffffffffffffffffffff1673ffffffffffffffffffffffffffffffffffffffff166370a08231336040518263ffffffff1660e01b81526004016107029190610bee565b602060405180830381865afa15801561071f573d6000803e3d6000fd5b505050506040513d601f19601f820116820180604052508101906107439190610c1e565b1461074d57600080fd5b600160009054906101000a900473ffffffffffffffffffffffffffffffffffffffff1673ffffffffffffffffffffffffffffffffffffffff16636a627842336040518263ffffffff1660e01b81526004016107a89190610bee565b600060405180830381600087803b1580156107c257600080fd5b505af11580156107d6573d6000803e3d6000fd5b50505050565b60026020528060005260406000206000915054906101000a900460ff1681565b600760019054906101000a900460ff1681565b60055481565b600760009054906101000a900460ff1681565b6000604051905090565b600080fd5b600080fd5b6000819050919050565b61084f8161083c565b811461085a57600080fd5b50565b60008135905061086c81610846565b92915050565b60006020828403121561088857610887610832565b5b60006108968482850161085d565b91505092915050565b6108a88161083c565b82525050565b600081519050919050565b600082825260208201905092915050565b60005b838110156108e85780820151818401526020810190506108cd565b838111156108f7576000848401525b50505050565b6000601f19601f8301169050919050565b6000610919826108ae565b61092381856108b9565b93506109338185602086016108ca565b61093c816108fd565b840191505092915050565b600060608201905061095c600083018661089f565b818103602083015261096e818561090e565b905061097d604083018461089f565b949350505050565b600080fd5b600080fd5b7f4e487b7100000000000000000000000000000000000000000000000000000000600052604160045260246000fd5b6109c7826108fd565b810181811067ffffffffffffffff821117156109e6576109e561098f565b5b80604052505050565b60006109f9610828565b9050610a0582826109be565b919050565b600067ffffffffffffffff821115610a2557610a2461098f565b5b610a2e826108fd565b9050602081019050919050565b82818337600083830152505050565b6000610a5d610a5884610a0a565b6109ef565b905082815260208101848484011115610a7957610a7861098a565b5b610a84848285610a3b565b509392505050565b600082601f830112610aa157610aa0610985565b5b8135610ab1848260208601610a4a565b91505092915050565b600060208284031215610ad057610acf610832565b5b600082013567ffffffffffffffff811115610aee57610aed610837565b5b610afa84828501610a8c565b91505092915050565b6000602082019050610b18600083018461089f565b92915050565b600073ffffffffffffffffffffffffffffffffffffffff82169050919050565b6000610b4982610b1e565b9050919050565b610b5981610b3e565b8114610b6457600080fd5b50565b600081359050610b7681610b50565b92915050565b600060208284031215610b9257610b91610832565b5b6000610ba084828501610b67565b91505092915050565b60008115159050919050565b610bbe81610ba9565b82525050565b6000602082019050610bd96000830184610bb5565b92915050565b610be881610b3e565b82525050565b6000602082019050610c036000830184610bdf565b92915050565b600081519050610c1881610846565b92915050565b600060208284031215610c3457610c33610832565b5b6000610c4284828501610c09565b91505092915050565b7f4e487b7100000000000000000000000000000000000000000000000000000000600052601160045260246000fd5b6000610c858261083c565b91507fffffffffffffffffffffffffffffffffffffffffffffffffffffffffffffffff8203610cb757610cb6610c4b565b5b600182019050919050565b6000819050919050565b6000819050919050565b6000610cf1610cec610ce784610cc2565b610ccc565b61083c565b9050919050565b610d0181610cd6565b82525050565b6000604082019050610d1c6000830185610bdf565b610d296020830184610cf8565b9392505050565b610d3981610ba9565b8114610d4457600080fd5b50565b600081519050610d5681610d30565b92915050565b600060208284031215610d7257610d71610832565b5b6000610d8084828501610d47565b91505092915050565b7f4e487b7100000000000000000000000000000000000000000000000000000000600052602260045260246000fd5b60006002820490506001821680610dd057607f821691505b602082108103610de357610de2610d89565b5b50919050565b6000610df48261083c565b9150610dff8361083c565b9250817fffffffffffffffffffffffffffffffffffffffffffffffffffffffffffffffff0483118215151615610e3857610e37610c4b565b5b828202905092915050565b6000610e4e8261083c565b9150610e598361083c565b9250827fffffffffffffffffffffffffffffffffffffffffffffffffffffffffffffffff03821115610e8e57610e8d610c4b565b5b828201905092915050565b60008190508160005260206000209050919050565b60006020601f8301049050919050565b600082821b905092915050565b600060088302610efb7fffffffffffffffffffffffffffffffffffffffffffffffffffffffffffffffff82610ebe565b610f058683610ebe565b95508019841693508086168417925050509392505050565b6000610f38610f33610f2e8461083c565b610ccc565b61083c565b9050919050565b6000819050919050565b610f5283610f1d565b610f66610f5e82610f3f565b848454610ecb565b825550505050565b600090565b610f7b610f6e565b610f86818484610f49565b505050565b5b81811015610faa57610f9f600082610f73565b600181019050610f8c565b5050565b601f821115610fef57610fc081610e99565b610fc984610eae565b81016020851015610fd8578190505b610fec610fe485610eae565b830182610f8b565b50505b505050565b600082821c905092915050565b600061101260001984600802610ff4565b1980831691505092915050565b600061102b8383611001565b9150826002028217905092915050565b611044826108ae565b67ffffffffffffffff81111561105d5761105c61098f565b5b6110678254610db8565b611072828285610fae565b600060209050601f8311600181146110a55760008415611093578287015190505b61109d858261101f565b865550611105565b601f1984166110b386610e99565b60005b828110156110db578489015182556001820191506020850194506020810190506110b6565b868310156110f857848901516110f4601f891682611001565b8355505b6001600288020188555050505b50505050505056fea26469706673582212205967bed1ec86d3008e632f848e596c9ddb8e19e312dbabb26ea6085e4af1b80964736f6c634300080f0033",
  "immutableReferences": {},
  "source": "// SPDX-License-Identifier: MIT\r\npragma solidity ^0.8.0;\r\n\r\nimport './ERC20Basic.sol';\r\nimport './ERC721Basic.sol';\r\n\r\ncontract Election{\r\n\r\n    ERC20Basic token;\r\n    ERC721Basic ERC721Token;\r\n\r\n    // Candidate model\r\n    struct Candidate {\r\n        uint id;\r\n        string name;\r\n        uint voteCount;\r\n    }\r\n\r\n    mapping(address => bool) public voters; // Store voted accounts\r\n\r\n    mapping(uint => Candidate) public candidates; // Fetch a Candidate\r\n\r\n    uint public candidatesQuantity; // Store Candidates Quantity\r\n    uint public electionEnd;\r\n    uint i;\r\n    bool public elecetionEndTimeCheck;\r\n    bool public displayElectionResults = false;\r\n\r\n    event votedEvent (\r\n        uint indexed _candidateId\r\n    );\r\n\r\n    event addCandidateEvent (\r\n    );\r\n\r\n    event displayResults ();\r\n\r\n    event timerNotEnd ();\r\n\r\n    // Constructor\r\n     constructor(ERC20Basic ERC20BasicAddress, ERC721Basic ERC721TokenAddress) {\r\n        // electionEnd = now + (1 * 1 minutes);\r\n        token = ERC20BasicAddress;\r\n        ERC721Token = ERC721TokenAddress;\r\n    }\r\n\r\n    function addCandidate (string memory _name) public {\r\n        require(elecetionEndTimeCheck);\r\n        candidatesQuantity ++;\r\n        candidates[candidatesQuantity] = Candidate(candidatesQuantity, _name, 0); // Adds a candidate to the cadidates list with candidatesQuantity as the id, name, initial voteCount\r\n        emit addCandidateEvent();\r\n    }\r\n\r\n    function setElectionEndTimer (uint electionEndTimer) public {\r\n        electionEnd = block.timestamp + (electionEndTimer * 1 minutes);\r\n        elecetionEndTimeCheck = true;\r\n    }\r\n\r\n    function checkElectionResults() public{\r\n        if (block.timestamp > electionEnd){\r\n            displayElectionResults = true;\r\n            emit displayResults(); // Trigger display results event\r\n        }else{\r\n            emit timerNotEnd(); // Trigger still time for election event\r\n        }\r\n        }\r\n\r\n    function vote (uint _candidateId) public {\r\n        require(block.timestamp < electionEnd);\r\n        require(ERC721Token.balanceOf(msg.sender)>0);\r\n        require(!voters[msg.sender]); // Check account haven't voted already\r\n        require(_candidateId > 0 && _candidateId <= candidatesQuantity); // Check for valid candidate\r\n        voters[msg.sender] = true; // Record account that has voted in the voters list\r\n        candidates[_candidateId].voteCount++; // Update cadidate votes quantity\r\n        token.transfer(msg.sender, 1);\r\n        emit votedEvent(_candidateId); // Trigger voted event\r\n    }\r\n\r\n    function voteRegistration() public {\r\n        require(ERC721Token.balanceOf(msg.sender) == 0);\r\n        ERC721Token.mint(msg.sender);\r\n    }\r\n\r\n}",
  "sourcePath": "C:\\Users\\lior1\\Desktop\\study\\ \\ \\Blockchain Course\\Blockchain_Elections_Final_Project\\contracts\\Election.sol",
  "compiler": {
    "name": "solc",
    "version": "0.8.15+commit.e14f2714.Emscripten.clang"
  },
  "schemaVersion": "3.4.7",
  "updatedAt": "2022-07-29T13:01:39.088Z",
  "networkType": "ethereum",
  "devdoc": {
    "kind": "dev",
    "methods": {},
    "version": 1
  },
  "userdoc": {
    "kind": "user",
    "methods": {},
    "version": 1
  }
}